:107800000C942A3C0C94473C0C94473C0C94473C09
:107810000C94473C0C94473C0C94473C0C94473CDC
:107820000C94473C0C94473C0C94473C0C94473CCC
:107830000C94473C0C94473C0C94473C0C94473CBC
:107840000C94473C0C94473C0C94473C0C94473CAC
:107850000C94473C11241FBECFE5D8E0DEBFCDBF5E
:1078600010E0A0E6B0E0E4EDFCE702C005900D9268
:10787000A236B107D9F710E0A2E6B0E001C01D9230
:10788000A836B107E1F70E94CB3C0C94693E0C94FA
:10789000003C482F41504F3FB1F0AE9A28EE33E004
:1078A00080E991E00197F1F721503040C9F7AE9897
:1078B00028EE33E080E991E00197F1F72150304064
:1078C000C9F7415050F7089580E090E0A0E0B0E0A3
:1078D0005F9915C020E80196A11DB11D813432E4E5
:1078E00093073FE0A30730E0B30738F085B3822762
:1078F00085BB80E090E0A0E0B0E05F9BECCF8CB176
:10790000992787FD909508955D9BFECF8CB90895CA
:107910000E94643C803271F0809164008F5F80939C
:107920006400853009F00895E0916200F0916300F1
:107930000995089584E10E94843C80E10E94843C82
:107940000895CF93C82F0E94643C803241F080910B
:1079500064008F5F80936400853081F40AC084E105
:107960000E94843C8C2F0E94843C80E10E94843CD5
:1079700005C0E0916200F09163000995CF910895F0
:10798000CF93C82FC150CF3F21F00E94643CC1501B
:10799000E0F7CF910895CFE5D7E0DEBFCDBFAA24B1
:1079A000BB24A79AAF9A000010BC80E189B988E196
:1079B0008AB986E880BDA69A81E00E94493C2E01E2
:1079C0000894411C511C0E94643C803381F1813336
:1079D00089F1803409F44FC0813409F455C08234F0
:1079E00009F467C0853409F46AC0803501F1823535
:1079F000F1F08135E1F0853509F465C0863509F48B
:107A00006BC0843609F472C0843709F4B3C0809126
:107A100064008F5F809364008530A9F6E091620076
:107A2000F091630009950E94643C803381F60E94C6
:107A3000883CC9CF0E94643C182F803241F784E112
:107A40000E94843C81E40E94843C86E50E94843C40
:107A500082E50E94843C812F0E94843C89E40E943C
:107A6000843C83E50E94843C80E50E94843C80E164
:107A70000E94843CA8CF0E94643C8638C0F20E94D9
:107A8000643C0E94883C9FCF0E94643C803809F48B
:107A9000C2C0813809F4D1C0823809F4D2C0883913
:107AA00021F080E00E94A13C8ECF83E00E94A13CA7
:107AB0008ACF84E10E94C03C0E94883C84CF85E04C
:107AC0000E94C03CF9CF0E94643CA82E0E94643CF6
:107AD000B82E0E94883C77CF0E94643C803309F422
:107AE0008FC083E00E94C03C80E0DCCF0E94643CF9
:107AF000D82E0E94643CC82E8EEF78220E94643CEF
:107B0000853409F490C0EE24FF241C141D0460F495
:107B100082010E94643CF80181938F010894E11C6A
:107B2000F11CEC14FD04A8F30E94643C803209F0BF
:107B30006ECF70FE1DC0AA0CBB1CEE24FF241C14CB
:107B40001D04B0F4F2018081E199FECFBFBAAEBA54
:107B50008DBB0FB6F894E29AE19A0FBE0894A11C6F
:107B6000B11C0894E11CF11C3196EC14FD0458F38F
:107B700084E17BCF0E94643CD82E0E94643CC82ED6
:107B8000AA0CBB1C0E94643C853409F44FC08EEFE4
:107B900078220E94643C803209F015CF84E10E9473
:107BA000843CEE24FF241C141D0408F060CF072D34
:107BB000112701701070872D8695882E9924E1E099
:107BC0008E22992401151105A9F0E199FECFBFBAC3
:107BD000AEBAE09A8DB30E94843C0894A11CB11CFB
:107BE0000894E11CF11CEC14FD0408F040CF0115D1
:107BF000110559F78114910481F7F5018491EBCFB8
:107C00000E94643C0E94643C182F0E94643C112333
:107C100081F0113021F082E00E94A13CD4CE85E9B0
:107C20000E94A13CD0CEE1E07E2A6DCFF1E07F2A18
:107C3000B0CF8EE10E94A13CC6CE81E00E94A13C63
:107C4000C2CE80E10E94A13CBECECF930E94643C94
:107C5000C82F0E94843CC13614F0C75503C0C033FE
:107C60000CF0C0538C2F992787FD9095CF910895E4
:107C70000F931F930E94253E082F112707FD109593
:107C800002951295107F1027007F10270E94253E35
:107C9000800F992787FD90951F910F910895CF939D
:107CA000C82F85958595859585958A3034F0895AB4
:107CB000CF70CA3034F0C95A05C0805DCF70CA3069
:107CC000D4F7C05D0E94843C8C2F0E94843CCF91ED
:047CD0000895FFCF45
:027CD40080002E
:040000030000780081
:00000001FF
